:100000000C942A000C9447000C9447000C94470071
:100010000C9447000C9447000C9447000C94470044
:100020000C9447000C9447000C9408010C94470072
:100030000C9447000C9447000C9447000C94470024
:100040000C9447000C9447000C9447000C94470014
:100050000C94470011241FBECFE5D8E0DEBFCDBF12
:1000600010E0A0E6B0E0ECEFF1E102C005900D92E7
:10007000A237B107D9F710E0A2E7B0E001C01D92A6
:10008000A63BB107E1F70E94BA050C94FC080C945A
:100090000000DF93CF9300D00F92CDB7DEB78983F6
:1000A0006A834B838B81882379F08A81282F30E003
:1000B00081E090E0022E02C0880F991F0A94E2F7B7
:1000C000982F8981892B0FC08A81282F30E081E009
:1000D00090E0022E02C0880F991F0A94E2F7982F31
:1000E0009095898189230F900F900F90CF91DF9188
:1000F0000895DF93CF9300D0CDB7DEB789836A83AD
:100100008A81282F30E081E090E0022E02C0880F23
:10011000991F0A94E2F7982F898189230F900F90F5
:10012000CF91DF910895DF93CF9300D000D0CDB76A
:10013000DEB769837A838B839C8389819A81AB81C3
:10014000BC818093600090936100A0936200B093A3
:1001500063008091600090916100A0916200B09175
:1001600063008093730090937400A0937500B09324
:1001700076000F900F900F900F90CF91DF91089520
:10018000DF93CF93CDB7DEB783E590E02BE0FC01A2
:1001900020838CE590E02DE7FC01208389E590E049
:1001A00022E0FC01208382E590E0FC011082809136
:1001B000600090916100A0916200B0916300809313
:1001C000730090937400A0937500B09376008FE550
:1001D00090E02FE530E0F90120812068FC012083C8
:1001E000CF91DF910895DF93CF93CDB7DEB783E54D
:1001F00090E0FC011082CF91DF910895DF93CF93BF
:10020000CDB7DEB781E080937200CF91DF91089582
:100210001F920F920FB60F9211242F933F934F937B
:100220005F936F937F938F939F93AF93BF93EF935E
:10023000FF93DF93CF93CDB7DEB78091730090919A
:100240007400A0917500B09176000197A109B109E1
:100250008093730090937400A0937500B093760020
:100260008091730090917400A0917500B091760018
:100270000097A105B10591F40E94FE0080916000F5
:1002800090916100A0916200B0916300809373002F
:1002900090937400A0937500B0937600CF91DF9196
:1002A000FF91EF91BF91AF919F918F917F916F914E
:1002B0005F914F913F912F910F900FBE0F901F9024
:1002C0001895DF93CF93CDB7DEB72C970FB6F89480
:1002D000DEBF0FBECDBF6D837E838F839887298756
:1002E0003A874B875C878D819E81AF81B885298550
:1002F0003A854B855C85BC01CD010E94A707DC01D6
:10030000CB0189839A83AB83BC8389819A81AB813A
:10031000BC810097A105B10579F489859A85AB85E3
:10032000BC85BC01CD012C960FB6F894DEBF0FBE84
:10033000CDBFCF91DF91089589859A85AB85BC8526
:100340008D839E83AF83B88789819A81AB81BC817D
:1003500089879A87AB87BC87C6CFDF93CF93CDB70A
:10036000DEB78AE290E02AE230E0F90120812861DC
:10037000FC01208380E490E020E430E0F90120815A
:100380002668FC01208389E290E023E3FC012083BE
:1003900080E490E0FC011082CF91DF910895DF931B
:1003A000CF93CDB7DEB78BE290E0FC018081807205
:1003B000CF91DF910895DF93CF93CDB7DEB78BE276
:1003C00090E0FC0180818074CF91DF910895DF93EC
:1003D000CF93CDB7DEB78BE290E0FC0180818078CF
:1003E000CF91DF910895DF93CF93CDB7DEB706C0ED
:1003F0008CE290E0FC01808180939F008BE290E092
:10040000FC0180818823A4F3CF91DF910895DF93CD
:10041000CF930F92CDB7DEB7898300008BE290E0D7
:10042000FC018081882F90E0807290700097B1F37A
:100430008CE290E02981FC0120830F90CF91DF9125
:100440000895DF93CF93CDB7DEB700008BE290E045
:10045000FC0180818823D4F78CE290E0FC0180814C
:10046000CF91DF910895DF93CF9300D00F92CDB756
:10047000DEB78B8386E090E00E94C9079A83898368
:100480008B81882F90E00E94C9079C0189819A8105
:10049000FC013183208389819A81FC011282898148
:1004A0009A81FC01138289819A81FC0114828981DD
:1004B0009A812B81FC01258389819A810F900F906D
:1004C0000F90CF91DF910895DF93CF9300D0CDB7F8
:1004D000DEB79A83898389819A81FC01948181E0C6
:1004E000992309F080E00F900F90CF91DF9108954C
:1004F000DF93CF9300D0CDB7DEB79A83898389810C
:100500009A81FC01248189819A81FC01958181E095
:10051000291709F080E00F900F90CF91DF91089597
:10052000DF93CF9300D0CDB7DEB79A8389838981DB
:100530009A81FC01128289819A81FC01138289814E
:100540009A81FC0114820F900F90CF91DF91089552
:10055000DF93CF9300D00F92CDB7DEB79A83898314
:100560006B8389819A81FC01248189819A81FC01B4
:1005700085812817C0F589819A81FC01208131810C
:1005800089819A81FC018381882F90E0820F931FDB
:100590002B81FC01208389819A81FC018381282F92
:1005A0002F5F89819A81FC01238389819A81FC01D3
:1005B000238189819A81FC019581822F692F0E9474
:1005C0009B07892F282F89819A81FC0123838981A8
:1005D0009A81FC018481282F2F5F89819A81FC01F7
:1005E000248380E001C081E00F900F900F90CF91A5
:1005F000DF910895DF93CF9300D00F92CDB7DEB790
:100600009B838A838A819B81FC018481882309F4EE
:1006100047C08A819B81FC01208131818A819B8135
:10062000FC018281882F90E0820F931FFC01808162
:1006300089838A819B81FC01208131818A819B8110
:10064000FC018281882F90E0820F931FFC011082B1
:100650008A819B81FC018281282F2F5F8A819B8167
:10066000FC0122838A819B81FC0122818A819B81FA
:10067000FC019581822F692F0E949B07892F282FCB
:100680008A819B81FC0122838A819B81FC01848178
:10069000282F21508A819B81FC012483898101C0FC
:1006A00080E00F900F900F90CF91DF9108950F93FE
:1006B0001F93DF93CF930F92CDB7DEB7898305E306
:1006C00010E085E390E0FC01808160E040E00E9462
:1006D0004900F80180838BE390E02981FC012083AD
:1006E00005E310E085E390E0FC01808161E041E0FA
:1006F0000E944900F80180830F90CF91DF911F91F4
:100700000F9108950F931F93DF93CF93CDB7DEB76B
:1007100005E310E085E390E0FC01808161E040E0CA
:100720000E944900F8018083CF91DF911F910F91C2
:1007300008950F931F93DF93CF930F92CDB7DEB73A
:10074000898305E310E085E390E0FC01808160E0AF
:1007500041E00E944900F80180838BE390E0298109
:10076000FC01208305E310E085E390E0FC0180813B
:1007700061E041E00E944900F80180830F90CF9131
:10078000DF911F910F9108950F931F93DF93CF93E4
:10079000CDB7DEB705E310E085E390E0FC01808192
:1007A00061E040E00E944900F8018083CF91DF9131
:1007B0001F910F910895DF93CF930F92CDB7DEB7BE
:1007C00089838981883028F4898180580E94570361
:1007D00004C0898188540E9457030F90CF91DF9104
:1007E0000895DF93CF9300D0CDB7DEB79A83898386
:1007F00089819A818330910509F44AC0843091053A
:100800008CF4009749F1181619062CF02FEF8F3F42
:100810009207F9F096C08130910529F18230910557
:1008200081F18FC08630910509F457C0873091055A
:100830003CF48430910599F185309105B9F181C07E
:100840008730910509F450C08830910509F467C0DC
:1008500078C01A8219827BC081E090E09A838983F4
:1008600010929E0074C080919E008A3028F481E02E
:1008700090E09A8389836BC082E090E09A838983B9
:1008800066C083E090E09A8389830E9482035FC000
:1008900084E090E09A8389830E94820358C085E0B7
:1008A00090E09A8389830E94820351C080917800EE
:1008B000882329F485E090E09A83898348C0809159
:1008C0007800882309F440C01092770086E090E019
:1008D0009A83898310929E003AC087E090E09A83C1
:1008E00089830E94820333C080919E00803180F40E
:1008F00080916400882361F086E090E09A83898388
:100900000E94C40380919E008F5F80939E001FC051
:1009100088E090E09A8389830E94C40318C0809184
:100920007800882329F485E090E09A8389830FC0BA
:1009300080917800882351F088E090E09A83898341
:1009400006C01A82198203C0000001C0000089811C
:100950009A818430910571F18530910584F481305C
:100960009105D1F0823091051CF4009791F04CC0B4
:1009700082309105B9F083309105C1F045C08630D1
:10098000910501F186309105CCF08730910541F158
:100990003BC01092770038C080919E008F5F80939B
:1009A0009E0032C088E30E9457032EC08FE00E9451
:1009B00057032AC081E00E94570326C081E080933C
:1009C000770022C080916400882329F080919E00E6
:1009D0000E94DB0319C0809179000E94DB0314C0E0
:1009E00080916400882359F080919E00882F90E0C8
:1009F00080569F4FFC0180810E94990305C0809121
:100A0000A0000E949903000089819A810F900F90A5
:100A1000CF91DF910895DF93CF9300D0CDB7DEB7AC
:100A20009A83898388E390E02981FC01208389816E
:100A30009A81009721F081309105C1F023C00E9476
:100A4000E701882319F41A8219821FC081E090E01F
:100A50009A8389838091B0009091B1002CE230E0BC
:100A6000F9012081622F0E94A8020FC00E94E701B5
:100A7000882329F081E090E09A83898306C01A8256
:100A8000198203C01A821982000089819A81009715
:100A900051F08130910549F48CE290E0FC018081B5
:100AA00080939D0003C0000001C0000089819A81ED
:100AB0000F900F90CF91DF910895DF93CF9300D0E7
:100AC000CDB7DEB79A83898389819A81009721F017
:100AD00081309105B1F143C08091B0009091B10097
:100AE0000E946402882351F580917700882331F1B8
:100AF00081E090E09A8389838091B0009091B10069
:100B00000E94FA0280939B0010929C000FC080917B
:100B10009C00882F90E020919B0080569F4FFC0105
:100B2000208380919C008F5F80939C0080919C002B
:100B3000803168F381E08093780014C01A821982B2
:100B400011C080917700882329F41A8219821092AB
:100B5000780008C081E090E09A83898303C01A82FC
:100B600019820000000089819A810F900F90CF9127
:100B7000DF9108950F931F93DF93CF93CDB7DEB727
:100B8000AA970FB6F894DEBF0FBECDBF8AE390E000
:100B90002FEFFC0120838BE390E0FC01108287E3C0
:100BA00090E02FEFFC01208388E390E0FC011082AD
:100BB00084E390E02FEFFC01208385E390E0FC01CB
:100BC000108281E390E02FEFFC01208382E390E02C
:100BD000FC0110828EE10E9433029093B100809359
:100BE000B0000E94AD018AE090E0A0E0B0E08B830D
:100BF0009C83AD83BE8382E390E0A0E0B0E08F836E
:100C00009887A987BA8780E293E0A0E0B0E08B875D
:100C10009C87AD87BE8781E090E0A0E0B0E08F8741
:100C2000988BA98BBA8B8B819C81AD81BE812F81E2
:100C3000388549855A85BC01CD010E946101DC01DE
:100C4000CB018F87988BA98BBA8B8F859889A989BF
:100C5000BA892B853C854D855E85BC01CD010E94FE
:100C60006101DC01CB018F87988BA98BBA8B8F85B3
:100C70009889A989BA898B8B9C8BAD8BBE8B8B8114
:100C80009C81AD81BE812B893C894D895E89BC01E7
:100C9000CD010E94A7072F8B388F498F5A8F8F81E4
:100CA0009885A985BA852B893C894D895E89BC01C7
:100CB000CD010E94A7072B8F3C8F4D8F5E8F8B85B8
:100CC0009C85AD85BE852B893C894D895E89BC019B
:100CD000CD010E94A7072F8F38A349A35AA3CE01A5
:100CE000859625E630E046E0F90100802F5F3F4F12
:100CF000FC010082019641504423B1F783E090E06B
:100D00009CA38BA38FEF80937A008F89988DA98DF8
:100D1000BA8D80937B0090937C00A0937D00B0936C
:100D20007E008F89988DA98DBA8D80937F009093D6
:100D30008000A0938100B093820081EF93E09093B4
:100D4000840080938300109285008B8D9C8DAD8DE7
:100D5000BE8D8093860090938700A0938800B09307
:100D600089008B8D9C8DAD8DBE8D80938A00909374
:100D70008B00A0938C00B0938D008BE095E0909356
:100D80008F0080938E00109290008F8D98A1A9A162
:100D9000BAA18093910090939200A0939300B09396
:100DA00094008F8D98A1A9A1BAA1809395009093EA
:100DB0009600A0939700B09398008DE595E09093EE
:100DC0009A00809399008B899C89AD89BE89BC016A
:100DD000CD010E9493000E94C0001A8219829BC01C
:100DE00089819A81880F991F9E012F5F3F4F820F43
:100DF000931F8496FC0180819181FC0125813681BD
:100E00004781508589819A81880F991FBE016F5F44
:100E10007F4F860F971F8496FC0180819181FC0192
:100E200081819281A381B481281739074A075B0722
:100E300009F045C089819A81880F991F9E012F5F13
:100E40003F4F820F931F8496FC010081118189819D
:100E50009A81880F991F9E012F5F3F4F820F931F2A
:100E60008496FC0180819181FC01218532858981F4
:100E70009A81880F991FAE014F5F5F4F840F951FB6
:100E80008496FC0180819181FC018081992787FDF6
:100E90009095F9010995F801808389819A81880FDD
:100EA000991F9E012F5F3F4F820F931F8496FC0175
:100EB00080819181FC0115821682178210868981BA
:100EC0009A81880F991F9E012F5F3F4F820F931FBA
:100ED0008496FC012081318189819A81880F991F34
:100EE000AE014F5F5F4F840F951F8496FC01808198
:100EF0009181FC0185819681A781B0850196A11D14
:100F0000B11DF90185839683A783B08789819A8172
:100F100001969A83898329813A818BA19CA1281704
:100F2000390708F45DCF0000809172008823E1F357
:100F30001092720052CF991B79E004C0991F961746
:100F400008F0961B881F7A95C9F780950895A1E24D
:100F50001A2EAA1BBB1BFD010DC0AA1FBB1FEE1F33
:100F6000FF1FA217B307E407F50720F0A21BB30B7E
:100F7000E40BF50B661F771F881F991F1A9469F7FA
:100F800060957095809590959B01AC01BD01CF0156
:100F90000895CF93DF938230910510F482E090E0C2
:100FA000E091B400F091B50040E050E020E030E086
:100FB00026C06081718168177907E0F068177907AA
:100FC00081F4828193812115310531F0D901139685
:100FD0009C938E9312972BC09093B5008093B4008E
:100FE00026C04115510519F06417750718F4AB01B7
:100FF000E901DF019F0172816381E72FF62F3097AE
:10100000C1F64115510501F1481B590B44305105FA
:1010100080F412968D919C911397209719F09B83E1
:101020008A8304C09093B5008093B400FD0132968A
:1010300046C0FD01E40FF51F81939193425050404B
:1010400011965C934E933BC02091B2003091B30057
:101050002115310541F420916D0030916E003093DF
:10106000B3002093B20020916F00309170002115E1
:10107000310541F42DB73EB740916B0050916C00A3
:10108000241B350BE091B200F091B300E217F30797
:10109000A0F42E1B3F0B2817390778F0AC014E5FE8
:1010A0005F4F2417350748F04E0F5F1F5093B30072
:1010B0004093B2008193919302C0E0E0F0E0CF0151
:1010C000DF91CF910895CF93DF93009709F491C0FA
:1010D000FC013297138212826091B4007091B500C6
:1010E0006115710581F420813181280F391F8091AC
:1010F000B2009091B3008217930799F5F093B30073
:10110000E093B20076C0DB0180E090E002C0CD0148
:10111000D901AE17BF0748F412962D913C91139751
:1011200021153105A1F7CD0121C0B383A283EF01C1
:10113000499159919E01240F351FA217B30779F4E5
:101140002D913C911197240F351F2E5F3F4F318316
:10115000208312962D913C9113973383228300971D
:1011600029F4F093B500E093B40043C0DC0113967A
:10117000FC93EE9312974D915D91A40FB51FEA1762
:10118000FB0769F420813181240F351F2E5F3F4F0B
:10119000EC0139832883228133813B832A83E0E079
:1011A000F0E002C0FB01BC01DB0112968D919C9125
:1011B00013970097B9F79B012E5F3F4F8D919C913C
:1011C0001197820F931F4091B2005091B3004817BE
:1011D000590779F4309729F41092B5001092B400B1
:1011E00002C013821282225030403093B300209309
:0C11F000B200DF91CF910895F894FFCF7A
:1011FC0001000000017A00850090002000B600007C
:02120C000000E0
:00000001FF
