:100000000C942A000C9447000C9447000C94470071
:100010000C9447000C9447000C9447000C94470044
:100020000C9447000C9447000C949D000C944700DE
:100030000C9447000C9447000C9447000C94470024
:100040000C9447000C9447000C9447000C94470014
:100050000C94470011241FBECFE5D8E0DEBFCDBF12
:1000600010E0A0E6B0E0EAEDF9E002C005900D92E4
:10007000AA36B107D9F710E0AAE6B0E001C01D9298
:10008000AD38B107E1F70E94C1020C94EB040C9467
:100090000000442351F041E050E09A0102C0220FD9
:1000A000331F6A95E2F7822B089521E030E0A90121
:1000B00002C0440F551F6A95E2F7BA016095862386
:1000C000089521E030E0A90102C0440F551F6A9550
:1000D000E2F7842308956093600070936100809339
:1000E00062009093630060936B0070936C00809348
:1000F0006D0090936E0008958BE083BF8DE78CBFF9
:1001000082E089BF12BE8091600090916100A09151
:100110006200B091630080936B0090936C00A09399
:100120006D00B0936E008FB780688FBF089513BEC7
:10013000089581E080936A0008951F920F920FB690
:100140000F9211242F933F934F935F936F937F935D
:100150008F939F93AF93BF93EF93FF9380916B0027
:1001600090916C00A0916D00B0916E000197A10973
:10017000B10980936B0090936C00A0936D00B093D5
:100180006E000097A105B10591F40E94990080913D
:10019000600090916100A0916200B0916300809333
:1001A0006B0090936C00A0936D00B0936E00FF9174
:1001B000EF91BF91AF919F918F917F916F915F91DF
:1001C0004F913F912F910F900FBE0F901F90189558
:1001D000EF92FF920F931F93E22EF32E042F152F11
:1001E00004C0EB2EFA2E0F2F1E2F2E2D3F2D402F49
:1001F000512F0E9496039B01AC016E2D7F2D802F05
:10020000912FB22FA32FF42FE52F21153105410592
:10021000510539F71F910F91FF90EF9008958FEFDF
:1002200064E040E00E94490085BB000083B38095F4
:1002300060E00E946100882309F08AC083B3809542
:1002400061E00E946100882309F084C083B3809537
:1002500062E00E946100882309F07EC083B380952C
:1002600063E00E946100882309F078C08FEF65E0A9
:1002700040E00E94490085BB000083B3809560E0A8
:100280000E946100882309F06BC083B3809561E010
:100290000E946100882309F065C083B3809562E005
:1002A0000E946100882309F05FC083B3809563E0FA
:1002B0000E946100882309F059C08FEF66E040E09A
:1002C0000E94490085BB000083B3809560E00E94D6
:1002D0006100882309F04CC083B3809561E00E94DF
:1002E0006100882309F046C083B3809562E00E94D4
:1002F0006100882309F040C083B3809563E00E94C9
:1003000061008823D9F58FEF67E040E00E94490043
:1003100085BB000083B3809560E00E946100882364
:1003200079F583B3809561E00E946100882351F5DF
:1003300083B3809562E00E946100882329F583B32E
:10034000809563E00E946100882301F184E40895B0
:1003500081E3089584E3089587E308958AE2089588
:1003600082E3089585E3089588E3089580E308957E
:1003700083E3089586E3089589E3089583E2089569
:1003800081E4089582E4089583E4089580E0089567
:100390008AB188618AB980B5866880BD83E389B9EE
:1003A00010BC08958BB1807208958BB1807408954C
:1003B0008BB1807808955F9B05C08CB15F99FDCFAC
:1003C0008093860008955D9BFECF8CB908955F9B56
:1003D000FECF8CB10895EF92FF920F931F93CF93AE
:1003E000DF93082F86E090E00E94B803192FE82ED3
:1003F000E7017E01F92EE701802F90E00E94B8030B
:10040000888399831A821B821C820D838E2D912FE3
:10041000DF91CF911F910F91FF90EF90089521E010
:10042000FC018481811120E0822F0895FC0181E08C
:1004300024819581291380E00895FC0112821382A2
:1004400014820895FC0194818581981788F4838132
:10045000A081B181A80FB11D6C9383818F5F6581ED
:100460000E948A03938384818F5F848380E0089550
:1004700081E00895EF92FF92CF93DF93EC010E9409
:100480000F01682F209721F0C130D105F9F417C072
:100490008823F1F0833251F490916F0081E0911143
:1004A00080E080936F00C1E0D0E012C080918700AF
:1004B000909188000E942202C1E0D0E009C0C1E012
:1004C000D0E0882329F4C0E0D0E002C0C0E0D0E052
:1004D0007E018C2F9F2DDF91CF91FF90EF9008959B
:1004E000FC018481882389F08281A081B181A80FD9
:1004F000B11D2C911C9282818F5F65810E948A03BD
:10050000928384818150848301C020E0822F0895EA
:10051000EF92FF92CF93DF93EC0188BB009721F01D
:100520008130910501F51AC0809187009091880073
:100530000E940F028823E1F480916F008823C1F4A8
:100540000E94D2018823A1F08091870090918800B9
:100550000E9470028CB9C1E0D0E00AC00E94D501AF
:10056000882321F405C0C0E0D0E002C0C0E0D0E0A4
:100570007E01C8BB8C2F9F2DDF91CF91FF90EF9014
:100580000895AF92BF92CF92DF92EF92FF920F93B6
:100590001F93DF93CF9300D000D0CDB7DEB78FEF9E
:1005A0008ABB1BBA87BB18BA90EF94BB9FE095BB80
:1005B00081BB12BA8EE10E94EB0190938800809378
:1005C00087000E94C80162E370E080E090E024E6CA
:1005D00030E040E050E00E94E8007B018C0162E3E3
:1005E00070E080E090E0A80197010E949603C22E7F
:1005F000A32ED42EB52E64E670E080E090E0A80132
:1006000097010E949603A22FB32F2BE730E03A8385
:10061000298380E790E09C838B8310927B00F90113
:100620003196C0927C00A182D282B382F9013596C4
:10063000C0928000A182D282B3822AE332E030935A
:1006400085002093840010927000FC013196A093E5
:100650007100B18342835383FC013596A0937500EA
:10066000B1834283538388E892E090937A00809329
:100670007900C801B7010E946B000E947C0000E075
:1006800010E0CC24DD245E010894A11CB11C37C00D
:10069000F801EE0FFF1FEA0DFB1DE080F180D7018E
:1006A00015962D913D914D915C91189711968D91D4
:1006B0009D910D90BC91A02D281739074A075B0723
:1006C00081F4F70180810184F285E02D992787FD6F
:1006D00090950995D7018C93F701158216821782A0
:1006E0001086F70185819681A781B0850196A11DAD
:1006F000B11D85839683A783B0870F5F1F4F02309C
:10070000110530F280916A008823E1F310926A00AB
:100710008601F5CF991B79E004C0991F961708F060
:10072000961B881F7A95C9F780950895A1E21A2E25
:10073000AA1BBB1BFD010DC0AA1FBB1FEE1FFF1F85
:10074000A217B307E407F50720F0A21BB30BE40BD5
:10075000F50B661F771F881F991F1A9469F760951C
:100760007095809590959B01AC01BD01CF010895D6
:10077000CF93DF938230910510F482E090E0E09116
:100780008B00F0918C0040E050E020E030E026C08B
:100790006081718168177907E0F06817790781F443
:1007A000828193812115310531F0D90113969C93F3
:1007B0008E9312972BC090938C0080938B0026C051
:1007C0004115510519F06417750718F4AB01E901DB
:1007D000DF019F0172816381E72FF62F3097C1F609
:1007E0004115510501F1481B590B4430510580F466
:1007F00012968D919C911397209719F09B838A8371
:1008000004C090938C0080938B00FD01329646C00B
:10081000FD01E40FF51F81939193425050401196D2
:100820005C934E933BC02091890030918A00211542
:10083000310541F4209166003091670030938A00C1
:1008400020938900209168003091690021153105BD
:1008500041F42DB73EB74091640050916500241BD0
:10086000350BE0918900F0918A00E217F307A0F4BC
:100870002E1B3F0B2817390778F0AC014E5F5F4FF6
:100880002417350748F04E0F5F1F50938A0040939E
:1008900089008193919302C0E0E0F0E0CF01DF9105
:1008A000CF910895CF93DF93009709F491C0FC0195
:1008B00032971382128260918B0070918C006115C7
:1008C000710581F420813181280F391F80918900C1
:1008D00090918A008217930799F5F0938A00E0932C
:1008E000890076C0DB0180E090E002C0CD01D90133
:1008F000AE17BF0748F412962D913C91139721151E
:100900003105A1F7CD0121C0B383A283EF01499145
:1009100059919E01240F351FA217B30779F42D9129
:100920003C911197240F351F2E5F3F4F3183208359
:1009300012962D913C91139733832283009729F4CB
:10094000F0938C00E0938B0043C0DC011396FC9382
:10095000EE9312974D915D91A40FB51FEA17FB0717
:1009600069F420813181240F351F2E5F3F4FEC0148
:1009700039832883228133813B832A83E0E0F0E0BE
:1009800002C0FB01BC01DB0112968D919C91139773
:100990000097B9F79B012E5F3F4F8D919C91119766
:1009A000820F931F4091890050918A004817590780
:1009B00079F4309729F410928C0010928B0002C0C9
:1009C000138212822250304030938A002093890093
:0A09D000DF91CF910895F894FFCF56
:0A09DA000100000020008D00000065
:00000001FF
