:100000008AC00000A5C00000A3C00000A1C000007D
:100010009FC000009DC000009BC0000099C0000070
:1000200097C0000095C0000093C0000091C0000080
:100030008FC00000DEC200008BC0000089C000003D
:1000400087C0000085C0000083C0000081C00000A0
:100050007FC000007DC000007BC0000079C00000B0
:1000600077C0000075C0000073C0000071C00000C0
:100070006FC000006DC000006BC0000069C00000D0
:1000800067C0000065C0000063C00000AE03140438
:1000900014041404140414041404140414041404A0
:1000A0001404140414041404140414041404140490
:1000B0001404140414041404140414041404140480
:1000C0001404140414041404140414041404140470
:1000D00014040E0414041404140414041404140466
:1000E0000204140414041404140414040804B403CF
:1000F000BA03C003C603CC03D203D803DE03E40370
:100100001404140414041404140414041404EA035A
:10011000F003F603FC0311241FBECFEFD0E4DEBFD3
:10012000CDBF11E0A0E0B1E0EEE0FBE000E00BBFEE
:1001300002C007900D92AE30B107D9F721E0AEE0D2
:10014000B1E001C01D92AD32B207E1F794D3DDC436
:1001500057CFCF93DF9300D01F92CDB7DEB78983FF
:100160006A834B838B81882379F08A81282F30E042
:1001700081E090E0022E02C0880F991F0A94E2F7F6
:10018000982F8981892B0FC08A81282F30E081E048
:1001900090E0022E02C0880F991F0A94E2F7982F70
:1001A0009095898189230F900F900F90DF91CF91C7
:1001B0000895CF93DF9300D0CDB7DEB789836A83EC
:1001C0008981882F90E02A81222F30E002C0959506
:1001D00087952A95E2F78170992721E0009709F425
:1001E00020E0822F0F900F90DF91CF910895CF9351
:1001F000DF93CDB7DEB784E690E07ED088E30CD005
:1002000086E00AD08FE008D081E006D08AE090E056
:1002100073D0DF91CF910895CF93DF931F92CDB725
:10022000DEB7898382E290E022E230E0F9012081AA
:100230002E7FFC0120838BE290E02981FC0120834A
:1002400082E290E022E230E0F90120812260FC01AC
:100250002083000082E290E022E230E0F901208178
:100260002D7FFC01208382E090E046D00F90DF914B
:10027000CF910895CF93DF931F92CDB7DEB78983D7
:1002800082E290E022E230E0F90120812160FC016D
:1002900020838BE290E02981FC01208382E290E0C0
:1002A00022E230E0F90120812260FC01208300007D
:1002B00082E290E022E230E0F90120812D7FFC0112
:1002C000208381E090E018D00F90DF91CF910895C6
:1002D000CF93DF931F92CDB7DEB7898389818131B8
:1002E00020F48981815898DF03C08981815594DF8A
:1002F0000F90DF91CF910895CF93DF9300D000D07E
:1003000000D0CDB7DEB79E838D831A82198214C0C8
:100310001C821B8206C000008B819C8101969C83FD
:100320008B838B819C81873023E09207A4F38981A2
:100330009A8101969A83898329813A818D819E8150
:10034000281739072CF326960FB6F894DEBF0FBE98
:10035000CDBFDF91CF9108950F931F93CF93DF937C
:10036000CDB7DEB708E210E040E064E08FEFF1DEE9
:10037000F8018083000086E290E0FC018081809596
:1003800060E017DF882311F081E3C1C086E290E0CE
:10039000FC018081809561E00CDF882311F084E30B
:1003A000B6C086E290E0FC018081809562E001DFCA
:1003B000882311F087E3ABC086E290E0FC018081E6
:1003C000809563E0F6DE882311F08AE2A0C008E29F
:1003D00010E040E065E08FEFBCDEF80180830000B4
:1003E00086E290E0FC018081809560E0E2DE882377
:1003F00011F082E38CC086E290E0FC018081809560
:1004000061E0D7DE882311F085E381C086E290E0C9
:10041000FC018081809562E0CCDE882311F088E3C6
:1004200076C086E290E0FC018081809563E0C1DEC9
:10043000882311F080E36BC008E210E040E066E042
:100440008FEF87DEF8018083000086E290E0FC01F8
:100450008081809560E0ADDE882311F083E357C092
:1004600086E290E0FC018081809561E0A2DE882335
:1004700011F086E34CC086E290E0FC01808180951B
:1004800062E097DE882311F089E341C086E290E0C4
:10049000FC018081809563E08CDE882311F083E28B
:1004A00036C008E210E040E067E08FEF52DEF8016E
:1004B0008083000086E290E0FC018081809560E00E
:1004C00078DE882311F081E422C086E290E0FC010E
:1004D0008081809561E06DDE882311F082E417C091
:1004E00086E290E0FC018081809562E062DE8823F4
:1004F00011F083E40CC086E290E0FC0180818095DD
:1005000063E057DE882311F084E401C080E0DF91CE
:10051000CF911F910F910895CF93DF9300D000D01A
:10052000CDB7DEB769837A838B839C8389819A8177
:10053000AB81BC8180930A0190930B01A0930C01C5
:10054000B0930D0180910A0190910B01A0910C01D3
:10055000B0910D0180930F0190931001A0931101B0
:10056000B09312010F900F900F900F90DF91CF91E9
:100570000895CF93DF93CDB7DEB781E890E02BE00D
:10058000FC01208388E890E02DE730E0FC01318316
:1005900020838FE690E022E0FC01208384E890E055
:1005A000FC011182108280910A0190910B01A091AF
:1005B0000C01B0910D0180930F0190931001A09355
:1005C0001101B09312018FE590E02FE530E0F901C1
:1005D00020812068FC012083DF91CF910895CF9383
:1005E000DF93CDB7DEB781E080930E01DF91CF912D
:1005F00008951F920F9200905F000F9211240090B7
:100600005B000F922F933F934F935F936F937F9372
:100610008F939F93AF93BF93EF93FF93CF93DF930A
:10062000CDB7DEB780910F0190911001A09111011B
:10063000B09112010197A109B10980930F01909324
:100640001001A0931101B093120180910F019091BC
:100650001001A0911101B09112010097A105B105FF
:1006600089F4BDDF80910A0190910B01A0910C01EA
:10067000B0910D0180930F0190931001A09311018F
:10068000B0931201DF91CF91FF91EF91BF91AF91A4
:100690009F918F917F916F915F914F913F912F919A
:1006A0000F9000925B000F9000925F000F901F90E0
:1006B0001895CF93DF9300D01F92CDB7DEB79B8301
:1006C0008A8380912A01882F90E08130910549F03A
:1006D00082309105A9F00097B9F482E080932A0155
:1006E00013C03ADE89838981882331F481E08093C5
:1006F0002A0110922C0108C082E080932A0104C0D4
:1007000081E080932A01000080912C01882309F068
:1007100098C080912A01882F90E08130910509F4DA
:100720008DC08230910509F08BC081E0D1DD14DEEF
:1007300089838981882F90E0AA2797FDA095BA2FF9
:1007400040E050E024E430E0841B950B2817390783
:1007500008F46AC08A5B9F4FFC01D1C185E290E03A
:100760002FE1FC01208366C081E384DD81E3809377
:10077000290160C082E37EDD82E3809329015AC0B3
:1007800083E378DD83E38093290154C084E372DD41
:1007900084E3809329014EC085E36CDD85E380937B
:1007A000290148C086E366DD86E38093290142C0C3
:1007B00087E360DD87E3809329013CC088E35ADD4D
:1007C00088E38093290136C089E354DD89E380936F
:1007D000290130C081E44EDD81E4809329012AC0E3
:1007E00082E448DD82E48093290124C083E442DD71
:1007F00083E4809329011EC084E43CDD84E480937B
:10080000290118C08AE236DD8AE28093290112C0EC
:1008100080E330DD80E3809329010CC083E22ADD90
:1008200083E28093290106C085E290E02BE1FC0180
:100830002083000081E080932C0103C0000001C0F0
:10084000000080912A01882F90E00F900F900F9068
:10085000DF91CF910895CF93DF9300D0CDB7DEB76E
:100860009A83898380912B01882F90E00F900F90BD
:10087000DF91CF9108950F931F93CF93DF93CDB75F
:10088000DEB760970FB6F894DEBF0FBECDBF81E232
:1008900090E02FEFFC01208382E290E0FC011082C7
:1008A00084E290E02FEFFC01208385E290E0FC01E0
:1008B000108287E290E020EFFC01208388E290E044
:1008C0002FE0FC0120838AE290E02FEFFC012083DF
:1008D0008BE290E0FC0110828ADC10922C0181E016
:1008E00090E0A0E0B0E08B839C83AD83BE8381E089
:1008F00090E0A0E0B0E08F839887A987BA8783E172
:1009000091E09E878D878EE191E0988B8F8782E0C2
:1009100090E09C878B87109213018B819C81AD8125
:10092000BE818093140190931501A0931601B0939A
:1009300017018B819C81AD81BE81809318019093BA
:100940001901A0931A01B0931B0189E593E09093DC
:100950001D0180931C0110921E018F819885A9852D
:10096000BA8580931F0190932001A0932101B09339
:1009700022018F819885A985BA8580932301909360
:100980002401A0932501B09326018BE294E090937B
:1009900028018093270161E070E080E090E0BCDDF9
:1009A000E8DD1A8219829BC089819A81880F991F7C
:1009B0009E012F5F3F4F820F931F0C96FC01808199
:1009C0009181FC01258136814781508589819A81F9
:1009D000880F991FBE016F5F7F4F860F971F0C9680
:1009E000FC0180819181FC0181819281A381B4818C
:1009F000281739074A075B0709F045C089819A81A2
:100A0000880F991F9E012F5F3F4F820F931F0C96F7
:100A1000FC010081118189819A81880F991F9E01B3
:100A20002F5F3F4F820F931F0C96FC0180819181B5
:100A3000FC012185328589819A81880F991FAE0139
:100A40004F5F5F4F840F951F0C96FC018081918151
:100A5000FC018081992787FD9095F9010995F8019E
:100A6000808389819A81880F991F9E012F5F3F4F54
:100A7000820F931F0C96FC0180819181FC011582ED
:100A800016821782108689819A81880F991F9E018C
:100A90002F5F3F4F820F931F0C96FC012081318105
:100AA00089819A81880F991FAE014F5F5F4F840F34
:100AB000951F0C96FC0180819181FC0185819681B6
:100AC000A781B0850196A11DB11DF901858396838B
:100AD000A783B08789819A8101969A838983298126
:100AE0003A818B859C852817390708F45DCF000073
:100AF00080910E018823E1F310920E0152CFEE0F88
:0E0B0000FF1F0590F491E02D0994F894FFCFAB
:0E0B0E0000002D012000010000000100000089
:00000001FF
