S0140000436F6465627265616B6572732E7372656346
S11300008AC00000A5C00000A3C00000A1C0000079
S11300109FC000009DC000009BC0000099C000006C
S113002097C0000095C0000093C0000091C000007C
S11300308FC00000DEC200008BC0000089C0000039
S113004087C0000085C0000083C0000081C000009C
S11300507FC000007DC000007BC0000079C00000AC
S113006077C0000075C0000073C0000071C00000BC
S11300706FC000006DC000006BC0000069C00000CC
S113008067C0000065C0000063C00000AE03E40365
S1130090E403E403E403E403E403E403E403E40324
S11300A0E403E403E403E403E403E403E403E40314
S11300B0E403E403E403E403E403E403E403E40304
S11300C0E403E403E403E403E403E403E403E403F4
S11300D0E403E103E403E403E403E403E403E403E7
S11300E0DB03E403E403E403E403E403DE03B40313
S11300F0B703BA03BD03C003C303C603C903CC03D8
S1130100E403E403E403E403E403E403E403CF03C8
S1130110D203D503D80311241FBECFEFD0E4DEBF32
S1130120CDBF11E0A0E0B1E0E6E3FAE000E00BBFF0
S113013002C007900D92AA30B107D9F721E0AAE0D6
S1130140B1E001C01D92AC31B207E1F754D371C4E0
S113015057CFCF93DF9300D01F92CDB7DEB78983FB
S11301606A834B838B81882379F08A81282F30E03E
S113017081E090E0022E02C0880F991F0A94E2F7F2
S1130180982F8981892B0FC08A81282F30E081E044
S113019090E0022E02C0880F991F0A94E2F7982F6C
S11301A09095898189230F900F900F90DF91CF91C3
S11301B00895CF93DF9300D0CDB7DEB789836A83E8
S11301C08981882F90E02A81222F30E002C0959502
S11301D087952A95E2F78170992721E0009709F421
S11301E020E0822F0F900F90DF91CF910895CF934D
S11301F0DF93CDB7DEB784E690E07ED088E30CD001
S113020086E00AD08FE008D081E006D08AE090E052
S113021073D0DF91CF910895CF93DF931F92CDB721
S1130220DEB7898382E290E022E230E0F9012081A6
S11302302E7FFC0120838BE290E02981FC01208346
S113024082E290E022E230E0F90120812260FC01A8
S11302502083000082E290E022E230E0F901208174
S11302602D7FFC01208382E090E046D00F90DF9147
S1130270CF910895CF93DF931F92CDB7DEB78983D3
S113028082E290E022E230E0F90120812160FC0169
S113029020838BE290E02981FC01208382E290E0BC
S11302A022E230E0F90120812260FC012083000079
S11302B082E290E022E230E0F90120812D7FFC010E
S11302C0208381E090E018D00F90DF91CF910895C2
S11302D0CF93DF931F92CDB7DEB7898389818131B4
S11302E020F48981815898DF03C08981815594DF86
S11302F00F90DF91CF910895CF93DF9300D000D07A
S113030000D0CDB7DEB79E838D831A82198214C0C4
S11303101C821B8206C000008B819C8101969C83F9
S11303208B838B819C81873023E09207A4F389819E
S11303309A8101969A83898329813A818D819E814C
S1130340281739072CF326960FB6F894DEBF0FBE94
S1130350CDBFDF91CF9108950F931F93CF93DF9378
S1130360CDB7DEB708E210E040E064E08FEFF1DEE5
S1130370F8018083000086E290E0FC018081809592
S113038060E017DF882311F081E3C1C086E290E0CA
S1130390FC018081809561E00CDF882311F084E307
S11303A0B6C086E290E0FC018081809562E001DFC6
S11303B0882311F087E3ABC086E290E0FC018081E2
S11303C0809563E0F6DE882311F08AE2A0C008E29B
S11303D010E040E065E08FEFBCDEF80180830000B0
S11303E086E290E0FC018081809560E0E2DE882373
S11303F011F082E38CC086E290E0FC01808180955C
S113040061E0D7DE882311F085E381C086E290E0C5
S1130410FC018081809562E0CCDE882311F088E3C2
S113042076C086E290E0FC018081809563E0C1DEC5
S1130430882311F080E36BC008E210E040E066E03E
S11304408FEF87DEF8018083000086E290E0FC01F4
S11304508081809560E0ADDE882311F083E357C08E
S113046086E290E0FC018081809561E0A2DE882331
S113047011F086E34CC086E290E0FC018081809517
S113048062E097DE882311F089E341C086E290E0C0
S1130490FC018081809563E08CDE882311F083E287
S11304A036C008E210E040E067E08FEF52DEF8016A
S11304B08083000086E290E0FC018081809560E00A
S11304C078DE882311F081E422C086E290E0FC010A
S11304D08081809561E06DDE882311F082E417C08D
S11304E086E290E0FC018081809562E062DE8823F0
S11304F011F083E40CC086E290E0FC0180818095D9
S113050063E057DE882311F084E401C080E0DF91CA
S1130510CF911F910F910895CF93DF9300D000D016
S1130520CDB7DEB769837A838B839C8389819A8173
S1130530AB81BC818093060190930701A0930801CD
S1130540B09309018091060190910701A0910801DF
S1130550B091090180930B0190930C01A0930D01BC
S1130560B0930E010F900F900F900F90DF91CF91E9
S11305700895CF93DF93CDB7DEB781E890E02BE009
S1130580FC01208388E890E02DE730E0FC01318312
S113059020838FE690E022E0FC01208384E890E051
S11305A0FC01118210828091060190910701A091B3
S11305B00801B091090180930B0190930C01A09361
S11305C00D01B0930E018FE590E02FE530E0F901C5
S11305D020812068FC012083DF91CF910895CF937F
S11305E0DF93CDB7DEB781E080930A01DF91CF912D
S11305F008951F920F9200905F000F9211240090B3
S11306005B000F922F933F934F935F936F937F936E
S11306108F939F93AF93BF93EF93FF93CF93DF9306
S1130620CDB7DEB780910B0190910C01A0910D0123
S1130630B0910E010197A109B10980930B01909328
S11306400C01A0930D01B0930E0180910B019091C8
S11306500C01A0910D01B0910E010097A105B10507
S113066089F4BDDF8091060190910701A0910801F2
S1130670B091090180930B0190930C01A0930D019B
S1130680B0930E01DF91CF91FF91EF91BF91AF91A4
S11306909F918F917F916F915F914F913F912F9196
S11306A00F9000925B000F9000925F000F901F90DC
S11306B01895CF93DF9300D01F92CDB7DEB79B83FD
S11306C08A8380911A01882F90E08130910549F046
S11306D082309105A9F00097B9F482E080931A0161
S11306E013C03ADE89838981882331F481E08093C1
S11306F01A0110921B0108C082E080931A0104C001
S113070081E080931A01000080911B01882309F085
S113071068C080911A01882F90E08130910509F416
S11307205DC08230910509F05BC081E0D1DD14DE4B
S113073089838981882F90E0AA2797FDA095BA2FF5
S113074040E050E024E430E0841B950B281739077F
S113075008F43AC08A5B9F4FFC0165C185E290E0D2
S11307602FE1FC01208336C081E384DD33C082E3C2
S113077081DD30C083E37EDD2DC084E37BDD2AC0D0
S113078085E378DD27C086E375DD24C087E372DD69
S113079021C088E36FDD1EC089E36CDD1BC081E4EA
S11307A069DD18C082E466DD15C083E463DD12C030
S11307B084E460DD0FC08AE25DDD0CC080E35ADDB5
S11307C009C083E257DD06C085E290E02BE1FC011D
S11307D02083000081E080931B0103C0000001C05E
S11307E0000080911A01882F90E00F900F900F90D5
S11307F0DF91CF9108950F931F93CF93DF93CDB7DC
S1130800DEB72A970FB6F894DEBF0FBECDBF81E2E4
S113081090E02FEFFC01208382E290E0FC01108243
S113082084E290E02FEFFC01208385E290E0FC015C
S1130830108287E290E020EFFC01208388E290E0C0
S11308402FE0FC0120838AE290E02FEFFC0120835B
S11308508BE290E0FC011082CADC10921B0181E063
S113086090E0A0E0B0E08B839C83AD83BE838FE0F7
S113087091E09A87898781E090E098878F8310922E
S11308800F018B819C81AD81BE8180931001909377
S11308901101A0931201B09313018B819C81AD814E
S11308A0BE818093140190931501A0931601B09317
S11308B0170189E593E0909319018093180162E38D
S11308C070E080E090E028DE54DE1A8219829BC03A
S11308D089819A81880F991F9E012F5F3F4F820F54
S11308E0931F0896FC0180819181FC01258136814A
S11308F04781508589819A81880F991FBE016F5F56
S11309007F4F860F971F0896FC0180819181FC011F
S113091081819281A381B481281739074A075B0733
S113092009F045C089819A81880F991F9E012F5F24
S11309303F4F820F931F0896FC010081118189812A
S11309409A81880F991F9E012F5F3F4F820F931F3B
S11309500896FC0180819181FC0121853285898181
S11309609A81880F991FAE014F5F5F4F840F951FC7
S11309700896FC0180819181FC018081992787FD83
S11309809095F9010995F801808389819A81880FEE
S1130990991F9E012F5F3F4F820F931F0896FC0102
S11309A080819181FC0115821682178210868981CB
S11309B09A81880F991F9E012F5F3F4F820F931FCB
S11309C00896FC012081318189819A81880F991FC1
S11309D0AE014F5F5F4F840F951F0896FC01808125
S11309E09181FC0185819681A781B0850196A11D25
S11309F0B11DF90185839683A783B08789819A8184
S1130A0001969A83898329813A818F819885281751
S1130A10390708F45DCF000080910A018823E1F3CF
S1130A2010920A0152CFEE0FFF1F0590F491E02DB2
S1090A300994F894FFCFC5
S10D0A3600001C0120000100000074
S9030000FC
